{
  "_format": "hh-sol-artifact-1",
  "contractName": "MinimalContract",
  "sourceName": "contracts/0-MinimalContract.sol",
  "abi": [
    {
      "inputs": [],
      "stateMutability": "nonpayable",
      "type": "constructor"
    },
    {
      "anonymous": false,
      "inputs": [
        {
          "indexed": true,
          "internalType": "address",
          "name": "admin",
          "type": "address"
        },
        {
          "indexed": false,
          "internalType": "uint256",
          "name": "payload",
          "type": "uint256"
        }
      ],
      "name": "RewardCreated",
      "type": "event"
    },
    {
      "inputs": [
        {
          "internalType": "uint256",
          "name": "_payload",
          "type": "uint256"
        }
      ],
      "name": "testEvent",
      "outputs": [],
      "stateMutability": "nonpayable",
      "type": "function"
    }
  ],
  "bytecode": "0x608060405234801561001057600080fd5b506101ec806100206000396000f3fe608060405234801561001057600080fd5b506004361061002b5760003560e01c8063dcd9c7fa14610030575b600080fd5b61004361003e366004610148565b610045565b005b60405181815233907fe3483177bd541fe7da6f8421b0b54fc121a0ca7c9abe2b67a1cbd16a8869f63a9060200160405180910390a26100b86040518060400160405280600b81526020017f656d6974207265776172640000000000000000000000000000000000000000008152506100bb565b50565b6100b8816040516024016100cf9190610161565b60408051601f198184030181529190526020810180517bffffffffffffffffffffffffffffffffffffffffffffffffffffffff167f41304fac0000000000000000000000000000000000000000000000000000000017905280516a636f6e736f6c652e6c6f67602083016000808483855afa5050505050565b60006020828403121561015a57600080fd5b5035919050565b600060208083528351808285015260005b8181101561018e57858101830151858201604001528201610172565b818111156101a0576000604083870101525b50601f01601f191692909201604001939250505056fea26469706673582212205787077c3a2f947bc8bd1ffa28f747d25f61a2321888d7f5292728d75f0fab3864736f6c634300080c0033",
  "linkReferences": {},
  "deployedLinkReferences": {}
}